{
  "_format": "hh-sol-artifact-1",
  "contractName": "EcoMarketplace",
  "sourceName": "contracts/EcoMarketplace.sol",
  "abi": [
    {
      "inputs": [
        {
          "internalType": "address",
          "name": "_ecoCredits",
          "type": "address"
        }
      ],
      "stateMutability": "nonpayable",
      "type": "constructor"
    },
    {
      "inputs": [],
      "name": "EnforcedPause",
      "type": "error"
    },
    {
      "inputs": [],
      "name": "ExpectedPause",
      "type": "error"
    },
    {
      "inputs": [
        {
          "internalType": "address",
          "name": "owner",
          "type": "address"
        }
      ],
      "name": "OwnableInvalidOwner",
      "type": "error"
    },
    {
      "inputs": [
        {
          "internalType": "address",
          "name": "account",
          "type": "address"
        }
      ],
      "name": "OwnableUnauthorizedAccount",
      "type": "error"
    },
    {
      "inputs": [],
      "name": "ReentrancyGuardReentrantCall",
      "type": "error"
    },
    {
      "anonymous": false,
      "inputs": [
        {
          "indexed": false,
          "internalType": "uint256",
          "name": "oldFee",
          "type": "uint256"
        },
        {
          "indexed": false,
          "internalType": "uint256",
          "name": "newFee",
          "type": "uint256"
        }
      ],
      "name": "FeeUpdated",
      "type": "event"
    },
    {
      "anonymous": false,
      "inputs": [
        {
          "indexed": true,
          "internalType": "address",
          "name": "to",
          "type": "address"
        },
        {
          "indexed": false,
          "internalType": "uint256",
          "name": "amount",
          "type": "uint256"
        }
      ],
      "name": "FeesWithdrawn",
      "type": "event"
    },
    {
      "anonymous": false,
      "inputs": [
        {
          "indexed": true,
          "internalType": "uint256",
          "name": "listingId",
          "type": "uint256"
        },
        {
          "indexed": true,
          "internalType": "address",
          "name": "seller",
          "type": "address"
        },
        {
          "indexed": false,
          "internalType": "uint256",
          "name": "tokenId",
          "type": "uint256"
        },
        {
          "indexed": false,
          "internalType": "uint256",
          "name": "amount",
          "type": "uint256"
        },
        {
          "indexed": false,
          "internalType": "uint256",
          "name": "pricePerUnit",
          "type": "uint256"
        },
        {
          "indexed": false,
          "internalType": "uint256",
          "name": "expiresAt",
          "type": "uint256"
        }
      ],
      "name": "Listed",
      "type": "event"
    },
    {
      "anonymous": false,
      "inputs": [
        {
          "indexed": true,
          "internalType": "uint256",
          "name": "listingId",
          "type": "uint256"
        },
        {
          "indexed": true,
          "internalType": "address",
          "name": "seller",
          "type": "address"
        }
      ],
      "name": "ListingCancelled",
      "type": "event"
    },
    {
      "anonymous": false,
      "inputs": [
        {
          "indexed": true,
          "internalType": "address",
          "name": "previousOwner",
          "type": "address"
        },
        {
          "indexed": true,
          "internalType": "address",
          "name": "newOwner",
          "type": "address"
        }
      ],
      "name": "OwnershipTransferred",
      "type": "event"
    },
    {
      "anonymous": false,
      "inputs": [
        {
          "indexed": false,
          "internalType": "address",
          "name": "account",
          "type": "address"
        }
      ],
      "name": "Paused",
      "type": "event"
    },
    {
      "anonymous": false,
      "inputs": [
        {
          "indexed": true,
          "internalType": "uint256",
          "name": "listingId",
          "type": "uint256"
        },
        {
          "indexed": true,
          "internalType": "address",
          "name": "buyer",
          "type": "address"
        },
        {
          "indexed": false,
          "internalType": "uint256",
          "name": "amount",
          "type": "uint256"
        },
        {
          "indexed": false,
          "internalType": "uint256",
          "name": "totalPrice",
          "type": "uint256"
        },
        {
          "indexed": false,
          "internalType": "uint256",
          "name": "fee",
          "type": "uint256"
        }
      ],
      "name": "Sold",
      "type": "event"
    },
    {
      "anonymous": false,
      "inputs": [
        {
          "indexed": false,
          "internalType": "address",
          "name": "account",
          "type": "address"
        }
      ],
      "name": "Unpaused",
      "type": "event"
    },
    {
      "inputs": [],
      "name": "DEFAULT_EXPIRY",
      "outputs": [
        {
          "internalType": "uint256",
          "name": "",
          "type": "uint256"
        }
      ],
      "stateMutability": "view",
      "type": "function"
    },
    {
      "inputs": [],
      "name": "MAX_FEE_BPS",
      "outputs": [
        {
          "internalType": "uint256",
          "name": "",
          "type": "uint256"
        }
      ],
      "stateMutability": "view",
      "type": "function"
    },
    {
      "inputs": [],
      "name": "MAX_LISTINGS_PER_USER",
      "outputs": [
        {
          "internalType": "uint256",
          "name": "",
          "type": "uint256"
        }
      ],
      "stateMutability": "view",
      "type": "function"
    },
    {
      "inputs": [],
      "name": "accumulatedFees",
      "outputs": [
        {
          "internalType": "uint256",
          "name": "",
          "type": "uint256"
        }
      ],
      "stateMutability": "view",
      "type": "function"
    },
    {
      "inputs": [
        {
          "internalType": "uint256",
          "name": "listingId",
          "type": "uint256"
        },
        {
          "internalType": "uint256",
          "name": "amount",
          "type": "uint256"
        }
      ],
      "name": "buy",
      "outputs": [],
      "stateMutability": "payable",
      "type": "function"
    },
    {
      "inputs": [
        {
          "internalType": "uint256",
          "name": "listingId",
          "type": "uint256"
        }
      ],
      "name": "cancelListing",
      "outputs": [],
      "stateMutability": "nonpayable",
      "type": "function"
    },
    {
      "inputs": [],
      "name": "ecoCredits",
      "outputs": [
        {
          "internalType": "contract IERC1155",
          "name": "",
          "type": "address"
        }
      ],
      "stateMutability": "view",
      "type": "function"
    },
    {
      "inputs": [],
      "name": "getActiveListingsCount",
      "outputs": [
        {
          "internalType": "uint256",
          "name": "count",
          "type": "uint256"
        }
      ],
      "stateMutability": "view",
      "type": "function"
    },
    {
      "inputs": [
        {
          "internalType": "uint256",
          "name": "listingId",
          "type": "uint256"
        }
      ],
      "name": "getListing",
      "outputs": [
        {
          "components": [
            {
              "internalType": "address",
              "name": "seller",
              "type": "address"
            },
            {
              "internalType": "uint256",
              "name": "tokenId",
              "type": "uint256"
            },
            {
              "internalType": "uint256",
              "name": "amount",
              "type": "uint256"
            },
            {
              "internalType": "uint256",
              "name": "pricePerUnit",
              "type": "uint256"
            },
            {
              "internalType": "bool",
              "name": "active",
              "type": "bool"
            },
            {
              "internalType": "uint256",
              "name": "expiresAt",
              "type": "uint256"
            }
          ],
          "internalType": "struct EcoMarketplace.Listing",
          "name": "",
          "type": "tuple"
        }
      ],
      "stateMutability": "view",
      "type": "function"
    },
    {
      "inputs": [
        {
          "internalType": "uint256",
          "name": "listingId",
          "type": "uint256"
        }
      ],
      "name": "isListingActive",
      "outputs": [
        {
          "internalType": "bool",
          "name": "",
          "type": "bool"
        }
      ],
      "stateMutability": "view",
      "type": "function"
    },
    {
      "inputs": [
        {
          "internalType": "uint256",
          "name": "tokenId",
          "type": "uint256"
        },
        {
          "internalType": "uint256",
          "name": "amount",
          "type": "uint256"
        },
        {
          "internalType": "uint256",
          "name": "pricePerUnit",
          "type": "uint256"
        }
      ],
      "name": "list",
      "outputs": [
        {
          "internalType": "uint256",
          "name": "",
          "type": "uint256"
        }
      ],
      "stateMutability": "nonpayable",
      "type": "function"
    },
    {
      "inputs": [
        {
          "internalType": "uint256",
          "name": "",
          "type": "uint256"
        }
      ],
      "name": "listings",
      "outputs": [
        {
          "internalType": "address",
          "name": "seller",
          "type": "address"
        },
        {
          "internalType": "uint256",
          "name": "tokenId",
          "type": "uint256"
        },
        {
          "internalType": "uint256",
          "name": "amount",
          "type": "uint256"
        },
        {
          "internalType": "uint256",
          "name": "pricePerUnit",
          "type": "uint256"
        },
        {
          "internalType": "bool",
          "name": "active",
          "type": "bool"
        },
        {
          "internalType": "uint256",
          "name": "expiresAt",
          "type": "uint256"
        }
      ],
      "stateMutability": "view",
      "type": "function"
    },
    {
      "inputs": [
        {
          "internalType": "address",
          "name": "",
          "type": "address"
        },
        {
          "internalType": "address",
          "name": "",
          "type": "address"
        },
        {
          "internalType": "uint256[]",
          "name": "",
          "type": "uint256[]"
        },
        {
          "internalType": "uint256[]",
          "name": "",
          "type": "uint256[]"
        },
        {
          "internalType": "bytes",
          "name": "",
          "type": "bytes"
        }
      ],
      "name": "onERC1155BatchReceived",
      "outputs": [
        {
          "internalType": "bytes4",
          "name": "",
          "type": "bytes4"
        }
      ],
      "stateMutability": "nonpayable",
      "type": "function"
    },
    {
      "inputs": [
        {
          "internalType": "address",
          "name": "",
          "type": "address"
        },
        {
          "internalType": "address",
          "name": "",
          "type": "address"
        },
        {
          "internalType": "uint256",
          "name": "",
          "type": "uint256"
        },
        {
          "internalType": "uint256",
          "name": "",
          "type": "uint256"
        },
        {
          "internalType": "bytes",
          "name": "",
          "type": "bytes"
        }
      ],
      "name": "onERC1155Received",
      "outputs": [
        {
          "internalType": "bytes4",
          "name": "",
          "type": "bytes4"
        }
      ],
      "stateMutability": "nonpayable",
      "type": "function"
    },
    {
      "inputs": [],
      "name": "owner",
      "outputs": [
        {
          "internalType": "address",
          "name": "",
          "type": "address"
        }
      ],
      "stateMutability": "view",
      "type": "function"
    },
    {
      "inputs": [],
      "name": "pause",
      "outputs": [],
      "stateMutability": "nonpayable",
      "type": "function"
    },
    {
      "inputs": [],
      "name": "paused",
      "outputs": [
        {
          "internalType": "bool",
          "name": "",
          "type": "bool"
        }
      ],
      "stateMutability": "view",
      "type": "function"
    },
    {
      "inputs": [],
      "name": "platformFeeBps",
      "outputs": [
        {
          "internalType": "uint256",
          "name": "",
          "type": "uint256"
        }
      ],
      "stateMutability": "view",
      "type": "function"
    },
    {
      "inputs": [],
      "name": "renounceOwnership",
      "outputs": [],
      "stateMutability": "nonpayable",
      "type": "function"
    },
    {
      "inputs": [
        {
          "internalType": "uint256",
          "name": "_feeBps",
          "type": "uint256"
        }
      ],
      "name": "setPlatformFee",
      "outputs": [],
      "stateMutability": "nonpayable",
      "type": "function"
    },
    {
      "inputs": [
        {
          "internalType": "bytes4",
          "name": "interfaceId",
          "type": "bytes4"
        }
      ],
      "name": "supportsInterface",
      "outputs": [
        {
          "internalType": "bool",
          "name": "",
          "type": "bool"
        }
      ],
      "stateMutability": "view",
      "type": "function"
    },
    {
      "inputs": [
        {
          "internalType": "address",
          "name": "newOwner",
          "type": "address"
        }
      ],
      "name": "transferOwnership",
      "outputs": [],
      "stateMutability": "nonpayable",
      "type": "function"
    },
    {
      "inputs": [],
      "name": "unpause",
      "outputs": [],
      "stateMutability": "nonpayable",
      "type": "function"
    },
    {
      "inputs": [
        {
          "internalType": "address",
          "name": "",
          "type": "address"
        }
      ],
      "name": "userListingCount",
      "outputs": [
        {
          "internalType": "uint256",
          "name": "",
          "type": "uint256"
        }
      ],
      "stateMutability": "view",
      "type": "function"
    },
    {
      "inputs": [],
      "name": "withdrawFees",
      "outputs": [],
      "stateMutability": "nonpayable",
      "type": "function"
    }
  ],
  "bytecode": "0x608060405260fa60035560016004553480156200001b57600080fd5b50604051620018d0380380620018d08339810160408190526200003e916200014a565b33806200006657604051631e4fbdf760e01b8152600060048201526024015b60405180910390fd5b6200007181620000fa565b50600180556001600160a01b038116620000ce5760405162461bcd60e51b815260206004820152601a60248201527f496e76616c69642045636f43726564697473206164647265737300000000000060448201526064016200005d565b600280546001600160a01b0390921661010002610100600160a81b03199092169190911790556200017c565b600080546001600160a01b038381166001600160a01b0319831681178455604051919092169283917f8be0079c531659141344cd1fd0a4f28419497f9722a3daafe3b4186f6b6457e09190a35050565b6000602082840312156200015d57600080fd5b81516001600160a01b03811681146200017557600080fd5b9392505050565b611744806200018c6000396000f3fe6080604052600436106101655760003560e01c80635c975abb116100d1578063bc197c811161008a578063de74e57b11610064578063de74e57b1461045b578063e666da6d146104f4578063f23a6e6114610509578063f2fde38b1461053557600080fd5b8063bc197c81146103ed578063d55be8c614610432578063d6febde81461044857600080fd5b80635c975abb14610358578063715018a61461037057806378e30c91146103855780637b55927c146103a55780638456cb59146103ba5780638da5cb5b146103cf57600080fd5b8063305a67a811610123578063305a67a8146102b457806339b1ea38146102d45780633f4ba83a14610301578063476343ee1461031657806351761bcc1461032b578063587f5ed71461034257600080fd5b80622df4f91461016a57806301ffc9a7146101ac578063107a274a146101dc57806312e8e2c31461024e57806319aeb4901461027057806322dcd13e1461029e575b600080fd5b34801561017657600080fd5b5060025461018f9061010090046001600160a01b031681565b6040516001600160a01b0390911681526020015b60405180910390f35b3480156101b857600080fd5b506101cc6101c736600461133a565b610555565b60405190151581526020016101a3565b3480156101e857600080fd5b506101fc6101f7366004611364565b61058c565b6040516101a3919081516001600160a01b0316815260208083015190820152604080830151908201526060808301519082015260808083015115159082015260a0918201519181019190915260c00190565b34801561025a57600080fd5b5061026e610269366004611364565b610637565b005b34801561027c57600080fd5b5061029061028b36600461137d565b6106d1565b6040519081526020016101a3565b3480156102aa57600080fd5b5061029060035481565b3480156102c057600080fd5b5061026e6102cf366004611364565b610940565b3480156102e057600080fd5b506102906102ef3660046113c5565b60076020526000908152604090205481565b34801561030d57600080fd5b5061026e610ac0565b34801561032257600080fd5b5061026e610ad2565b34801561033757600080fd5b5061029062278d0081565b34801561034e57600080fd5b5061029060055481565b34801561036457600080fd5b5060025460ff166101cc565b34801561037c57600080fd5b5061026e610c1d565b34801561039157600080fd5b506101cc6103a0366004611364565b610c2f565b3480156103b157600080fd5b50610290610ca8565b3480156103c657600080fd5b5061026e610d0a565b3480156103db57600080fd5b506000546001600160a01b031661018f565b3480156103f957600080fd5b50610419610408366004611517565b63bc197c8160e01b95945050505050565b6040516001600160e01b031990911681526020016101a3565b34801561043e57600080fd5b506102906103e881565b61026e6104563660046115c1565b610d1a565b34801561046757600080fd5b506104bb610476366004611364565b6006602052600090815260409020805460018201546002830154600384015460048501546005909501546001600160a01b039094169492939192909160ff9091169086565b604080516001600160a01b03909716875260208701959095529385019290925260608401521515608083015260a082015260c0016101a3565b34801561050057600080fd5b50610290603281565b34801561051557600080fd5b506104196105243660046115e3565b63f23a6e6160e01b95945050505050565b34801561054157600080fd5b5061026e6105503660046113c5565b61117f565b60006001600160e01b03198216630271189760e51b148061058657506301ffc9a760e01b6001600160e01b03198316145b92915050565b6105d06040518060c0016040528060006001600160a01b03168152602001600081526020016000815260200160008152602001600015158152602001600081525090565b50600090815260066020908152604091829020825160c08101845281546001600160a01b0316815260018201549281019290925260028101549282019290925260038201546060820152600482015460ff161515608082015260059091015460a082015290565b61063f6111bd565b6103e881111561068c5760405162461bcd60e51b81526020600482015260136024820152724665652065786365656473206d6178696d756d60681b60448201526064015b60405180910390fd5b600380549082905560408051828152602081018490527f528d9479e9f9889a87a3c30c7f7ba537e5e59c4c85a37733b16e57c62df61302910160405180910390a15050565b60006106db6111ea565b600083116107205760405162461bcd60e51b81526020600482015260126024820152710416d6f756e74206d757374206265203e20360741b6044820152606401610683565b600082116107645760405162461bcd60e51b815260206004820152601160248201527005072696365206d757374206265203e203607c1b6044820152606401610683565b336000908152600760205260409020546032116107ba5760405162461bcd60e51b815260206004820152601460248201527313585e081b1a5cdd1a5b99dcc81c995858da195960621b6044820152606401610683565b600254604051637921219560e11b81526101009091046001600160a01b03169063f242432a906107f4903390309089908990600401611648565b600060405180830381600087803b15801561080e57600080fd5b505af1158015610822573d6000803e3d6000fd5b5050600480546000935091508261083883611696565b909155509050600061084d62278d00426116af565b6040805160c0810182523380825260208083018b81528385018b815260608086018c81526001608080890182815260a08a018c815260008f815260068a528c81209b518c546001600160a01b0319166001600160a01b03909116178c5597518b850155955160028b0155925160038a0155915160048901805460ff1916911515919091179055925160059097019690965584835260078452918690208054909101905584518c81529182018b905293810189905292830184905292935084917fb26df8126a1bfe57f8cc79c3e12947b24a21c028ca6801e16331e63333d66f96910160405180910390a350949350505050565b600081815260066020526040902080546001600160a01b031633146109985760405162461bcd60e51b815260206004820152600e60248201526d2737ba103a34329039b2b63632b960911b6044820152606401610683565b600481015460ff166109e15760405162461bcd60e51b81526020600482015260126024820152714c697374696e67206e6f742061637469766560701b6044820152606401610683565b60048101805460ff191690553360009081526007602052604090205415610a1a5733600090815260076020526040902080546000190190555b60028054600183015491830154604051637921219560e11b81526101009092046001600160a01b03169263f242432a92610a5d9230923392909190600401611648565b600060405180830381600087803b158015610a7757600080fd5b505af1158015610a8b573d6000803e3d6000fd5b50506040513392508491507f8e25282255ab31897df2b0456bb993ac7f84d376861aefd84901d2d63a7428a290600090a35050565b610ac86111bd565b610ad061120e565b565b610ada6111bd565b610ae2611260565b60055480610b285760405162461bcd60e51b81526020600482015260136024820152724e6f206665657320746f20776974686472617760681b6044820152606401610683565b6000600581905580546040516001600160a01b039091169083908381818185875af1925050503d8060008114610b7a576040519150601f19603f3d011682016040523d82523d6000602084013e610b7f565b606091505b5050905080610bc45760405162461bcd60e51b815260206004820152601160248201527015da5d1a191c985dd85b0819985a5b1959607a1b6044820152606401610683565b6000546001600160a01b03166001600160a01b03167fc0819c13be868895eb93e40eaceb96de976442fa1d404e5c55f14bb65a8c489a83604051610c0a91815260200190565b60405180910390a25050610ad060018055565b610c256111bd565b610ad0600061128a565b6000818152600660209081526040808320815160c08101835281546001600160a01b0316815260018201549381019390935260028101549183019190915260038101546060830152600481015460ff161580156080840181905260059092015460a0840152610ca157508060a0015142105b9392505050565b600060015b600454811015610d065760008181526006602052604090206004015460ff168015610ce8575060008181526006602052604090206005015442105b15610cf4576001909101905b80610cfe81611696565b915050610cad565b5090565b610d126111bd565b610ad06112da565b610d22611260565b610d2a6111ea565b6000828152600660205260409020600481015460ff16610d815760405162461bcd60e51b81526020600482015260126024820152714c697374696e67206e6f742061637469766560701b6044820152606401610683565b80600501544210610dc65760405162461bcd60e51b815260206004820152600f60248201526e131a5cdd1a5b99c8195e1c1a5c9959608a1b6044820152606401610683565b600082118015610dda575080600201548211155b610e175760405162461bcd60e51b815260206004820152600e60248201526d125b9d985b1a5908185b5bdd5b9d60921b6044820152606401610683565b80546001600160a01b03163303610e695760405162461bcd60e51b815260206004820152601660248201527543616e6e6f7420627579206f776e206c697374696e6760501b6044820152606401610683565b6000828260030154610e7b91906116c2565b905080341015610ec45760405162461bcd60e51b8152602060048201526014602482015273125b9cdd59999a58da595b9d081c185e5b595b9d60621b6044820152606401610683565b600061271060035483610ed791906116c2565b610ee191906116d9565b90506000610eef82846116fb565b90508160056000828254610f0391906116af565b9250508190555084846002016000828254610f1e91906116fb565b90915550506002840154600003610f7c5760048401805460ff1916905583546001600160a01b031660009081526007602052604090205415610f7c5783546001600160a01b0316600090815260076020526040902080546000190190555b6002546001850154604051637921219560e11b81526101009092046001600160a01b03169163f242432a91610fb991309133918b90600401611648565b600060405180830381600087803b158015610fd357600080fd5b505af1158015610fe7573d6000803e3d6000fd5b50508554604051600093506001600160a01b03909116915083908381818185875af1925050503d8060008114611039576040519150601f19603f3d011682016040523d82523d6000602084013e61103e565b606091505b505090508061108f5760405162461bcd60e51b815260206004820152601860248201527f5061796d656e7420746f2073656c6c6572206661696c656400000000000000006044820152606401610683565b83341115611128576000336110a486346116fb565b604051600081818185875af1925050503d80600081146110e0576040519150601f19603f3d011682016040523d82523d6000602084013e6110e5565b606091505b50509050806111265760405162461bcd60e51b815260206004820152600d60248201526c1499599d5b990819985a5b1959609a1b6044820152606401610683565b505b6040805187815260208101869052908101849052339088907f47c2f180f415c943169b11c4bd61c71dbd5f15ed83b496b3a65a47a3a21d63b49060600160405180910390a3505050505061117b60018055565b5050565b6111876111bd565b6001600160a01b0381166111b157604051631e4fbdf760e01b815260006004820152602401610683565b6111ba8161128a565b50565b6000546001600160a01b03163314610ad05760405163118cdaa760e01b8152336004820152602401610683565b60025460ff1615610ad05760405163d93c066560e01b815260040160405180910390fd5b611216611317565b6002805460ff191690557f5db9ee0a495bf2e6ff9c91a7834c1ba4fdd244a5e8aa4e537bd38aeae4b073aa335b6040516001600160a01b03909116815260200160405180910390a1565b60026001540361128357604051633ee5aeb560e01b815260040160405180910390fd5b6002600155565b600080546001600160a01b038381166001600160a01b0319831681178455604051919092169283917f8be0079c531659141344cd1fd0a4f28419497f9722a3daafe3b4186f6b6457e09190a35050565b6112e26111ea565b6002805460ff191660011790557f62e78cea01bee320cd4e420270b5ea74000d11b0c9f74754ebdbfc544b05a2586112433390565b60025460ff16610ad057604051638dfc202b60e01b815260040160405180910390fd5b60006020828403121561134c57600080fd5b81356001600160e01b031981168114610ca157600080fd5b60006020828403121561137657600080fd5b5035919050565b60008060006060848603121561139257600080fd5b505081359360208301359350604090920135919050565b80356001600160a01b03811681146113c057600080fd5b919050565b6000602082840312156113d757600080fd5b610ca1826113a9565b634e487b7160e01b600052604160045260246000fd5b604051601f8201601f1916810167ffffffffffffffff8111828210171561141f5761141f6113e0565b604052919050565b600082601f83011261143857600080fd5b8135602067ffffffffffffffff821115611454576114546113e0565b8160051b6114638282016113f6565b928352848101820192828101908785111561147d57600080fd5b83870192505b8483101561149c57823582529183019190830190611483565b979650505050505050565b600082601f8301126114b857600080fd5b813567ffffffffffffffff8111156114d2576114d26113e0565b6114e5601f8201601f19166020016113f6565b8181528460208386010111156114fa57600080fd5b816020850160208301376000918101602001919091529392505050565b600080600080600060a0868803121561152f57600080fd5b611538866113a9565b9450611546602087016113a9565b9350604086013567ffffffffffffffff8082111561156357600080fd5b61156f89838a01611427565b9450606088013591508082111561158557600080fd5b61159189838a01611427565b935060808801359150808211156115a757600080fd5b506115b4888289016114a7565b9150509295509295909350565b600080604083850312156115d457600080fd5b50508035926020909101359150565b600080600080600060a086880312156115fb57600080fd5b611604866113a9565b9450611612602087016113a9565b93506040860135925060608601359150608086013567ffffffffffffffff81111561163c57600080fd5b6115b4888289016114a7565b6001600160a01b0394851681529290931660208301526040820152606081019190915260a06080820181905260009082015260c00190565b634e487b7160e01b600052601160045260246000fd5b6000600182016116a8576116a8611680565b5060010190565b8082018082111561058657610586611680565b808202811582820484141761058657610586611680565b6000826116f657634e487b7160e01b600052601260045260246000fd5b500490565b818103818111156105865761058661168056fea26469706673582212207e843e2fb2110e9e0b45204ca669c741f023ef66dae35c80be5338635ee8c9d764736f6c63430008140033",
  "linkReferences": {},
  "deployedLinkReferences": {}
}